:020000020000FC
:100000000FEF04B90FEF0AB908EF07B900E6009344
:100010007C0007E800937A000E943600319BFCCFF9
:100020000E944300602F702F0E94430006175AF46D
:1000300007175AF0062F071B0E9427000E94360060
:10004000319BEACFF1CF602FF5CF702FF3CF20E0B7
:1000500030E040E0043620F40A3028F4402F0895C0
:1000600004562395F7CF0A503395F4CF5F9A25B9FC
:1000700014D05F985E9A35B910D05E985D9A45B9F4
:100080000CD05D98089507EC00937A0000917A00F7
:1000900004FFFCCF00917900089501E08FEF90EF0D
:0A00A0000196F1F70A95D1F70895D3
:00000001FF
