:020000020000FC
:100000000FE10AB90FEF04B980E000E0B8E0C2E008
:10001000D1E0E0E0F0E009B107FD07C009B106FD5D
:100020001DC0E0E0F0E02EC02DC0E030E9F7E1E0D7
:10003000B395BA3051F0B63029F5C53019F5D23044
:1000400009F5B0E0C0E0D0E01DC0B0E0C395CA3013
:1000500009F018C0B0E0C0E0D39514C0F03021F72B
:10006000F1E0BA95BF3F09F00DC0B9E0CA95CF3FA6
:1000700009F008C0B9E0C9E0DA95DF3F19F4B0E053
:10008000C0E0D0E08D2F85B95A9A94E10E945800C3
:100090005A988C2F5B9A85B994E10E9458005B981E
:1000A0008B2F5C9A85B994E10E9458005C98B3CF7D
:1000B00001E080E190EF0196F1F70A95D1F70895FC
:00000001FF
