:020000020000FC
:100000001EC030FF42C052FF01C035C016B51217E6
:10001000212FB8F74A9540FD6EC041FD6CC042FDEE
:100020006AC043FD68C044FD66C045FD64C046FD2E
:1000300062C047FD60C05395E0FF4BC032C00FE186
:100040000AB90FEF04B905E005BD02E004BD0FEFEA
:1000500007BD80E000E0B8E0C2E0D1E0E0E0F0E021
:1000600030E009B107FD1AC009B106FD30C0E0E07B
:10007000F0E030E040C016B51A17A12FE0F76A95FE
:10008000D1F560E1E0FF25C00CC0222760E1AA277E
:1000900050E031E04CE3E0FF1AC000C0E0FDB1CF1A
:1000A000E1E0B395BA3051F0B63029F5C53019F515
:1000B000D23009F5B0E0C0E0D0E01DC0B0E0C3959B
:1000C000CA3009F018C0B0E0C0E0D39514C0F0FD0C
:1000D00098CFF1E0BA95BF3F09F00DC0B9E0CA95DD
:1000E000CF3F09F008C0B9E0C9E0DA95DF3F19F465
:1000F000B0E0C0E0D0E08D2F85B95A9A94E10FD0DE
:100100005A988C2F5B9A85B994E109D05B988B2F14
:100110005C9A85B994E10E948F005C98A2CF01E0BF
:0E01200080E190EE0196F1F70A95D1F708956F
:00000001FF
