S00D00004C414231372E73726563E0
S11300000C9443000C9455000C9455000C9455002A
S11300100C9455000C9455000C9455000C94550008
S11300200C9455000C9455000C9455000C945500F8
S11300300C9455000C9455000C9455000C945500E8
S11300400C9455000C9455000C9455000C945500D8
S11300500C9455000C94F1000C9455000C9455002C
S11300600C9455000C94550005A84CCDB2D44EB94F
S11300703836A9020C50B9918688083CA6AAAA2A47
S1130080BE000000803F11241FBECFEFD8E0DEBFCA
S1130090CDBF21E0A0E0B1E001C01D92A231B207C2
S11300A0E1F70E9427010C94C3030C9400008F9283
S11300B09F92AF92BF92CF92DF92EF92FF92CF9333
S11300C0DF9360E070E0CB01C0E0D0E020E030E0FE
S11300D04AEB52E40E949F019B01AC010E942E0155
S11300E026E53EE049E450E40E940D030E949A0193
S11300F02091090130910A0140910B0150910C01AA
S11301000E940D0320E030E040E05FE30E940D0315
S113011060930001709301018093020190930301A5
S11301200E9411026158609311016093080170E00C
S113013080E090E00E9440024B015C0120E030E04E
S113014040E850E40E940D036B017C0160930D01B3
S113015070930E0180930F019093100120E030E022
S113016040E85CE3C501B4010E940D0360930401FF
S1130170709305018093060190930701C701B601AE
S11301800E9411026BB96091040170910501809184
S11301900601909107010E94110265B92196BE01E2
S11301A00D2E000C880B990B0E944202CE35D1050E
S11301B009F08CCFDF91CF91FF90EF90DF90CF903B
S11301C0BF90AF909F908F90089583E084B98CEF97
S11301D087B98AB980E680937C008FEC80937A009B
S11301E008951F920F920FB60F9211242F933F93ED
S11301F04F935F936F937F938F939F93AF93BF932B
S1130200EF93FF936091790070E080E090E00E94AA
S113021040026093090170930A0180930B0190934B
S11302200C01EAE7F0E0808180648083FF91EF9124
S1130230BF91AF919F918F917F916F915F914F91FA
S11302403F912F910F900FBE0F901F9018950E9411
S1130250E50078940E945700FDCF5058BB27AA2789
S11302600E9445010C94BF020E94860238F00E944D
S11302708D0220F039F49F3F19F426F40C94830284
S11302800EF4E095E7FB0C947D02E92F0E94E40252
S113029058F3BA17620773078407950720F079F4B7
S11302A0A6F50C9406030EF4E0950B2EBA2FA02DA0
S11302B00B01B90190010C01CA01A0011124FF270F
S11302C0591B99F0593F50F4503E68F11A16F0400A
S11302D0A22F232F342F4427585FF3CF4695379509
S11302E02795A795F0405395C9F77EF41F16BA0BCE
S11302F0620B730B840BBAF09150A1F0FF0FBB1F7C
S1130300661F771F881FC2F70EC0BA0F621F731FC4
S1130310841F48F4879577956795B795F7959E3F21
S113032008F0B0CF9395880F08F09927EE0F9795B2
S1130330879508950E949602E3950C94D0020E943A
S1130340B3010C94BF020E948D0258F00E948602F1
S113035040F029F45F3F29F00C947D0251110C9474
S113036007030C9483020E94E40268F39923B1F317
S1130370552391F3951B550BBB27AA2762177307C7
S1130380840738F09F5F5F4F220F331F441FAA1F5B
S1130390A9F335D00E2E3AF0E0E832D09150504017
S11303A0E695001CCAF72BD0FE2F29D0660F771FC5
S11303B0881FBB1F261737074807AB07B0E809F0AB
S11303C0BB0B802DBF01FF2793585F4F3AF09E3F30
S11303D0510578F00C947D020C9407035F3FE4F31D
S11303E0983ED4F3869577956795B795F7959F5F73
S11303F0C9F7880F911D9695879597F90895E1E0BF
S1130400660F771F881FBB1F621773078407BA071D
S113041020F0621B730B840BBA0BEE1F88F7E09578
S113042008950E94EC0288F09F5798F0B92F9927FD
S1130430B751B0F0E1F0660F771F881F991F1AF0CB
S1130440BA95C9F714C0B13091F00E940603B1E027
S113045008950C940603672F782F8827B85F39F026
S1130460B93FCCF3869577956795B395D9F73EF464
S113047090958095709561957F4F8F4F9F4F08950C
S1130480E89409C097FB3EF490958095709561952A
S11304907F4F8F4F9F4F9923A9F0F92F96E9BB27E0
S11304A09395F695879577956795B795F111F8CF5C
S11304B0FAF4BB0F11F460FF1BC06F5F7F4F8F4FC7
S11304C09F4F16C0882311F096E911C0772321F0BD
S11304D09EE8872F762F05C0662371F096E8862F55
S11304E070E060E02AF09A95660F771F881FDAF7AC
S11304F0880F9695879597F9089597F99F6780E8EF
S113050070E060E008959FEF80EC089500240A9461
S11305101616170618060906089500240A941216DA
S113052013061406050608950C9483020E94EC0237
S1130530D8F3E894E0E0BB279F57F0F02AED3FE0C2
S113054049EC06C0EE0FBB0F661F771F881F28F00B
S1130550B23A62077307840728F0B25A620B730B2E
S1130560840BE3959A9572F7803830F49A95BB0F13
S1130570661F771F881FD2F790480C947C03092EBE
S11305800394000C11F4882352F0BB0F40F4BF2BEA
S113059011F460FF04C06F5F7F4F8F4F9F4F08952A
S11305A0EF93E0FF07C0A2EA2AED3FE049EC5FEBDE
S11305B00E9445010E94BF020F90039401FC9058D1
S11305C0E8E6F0E00C94880357FD9058440F551F5B
S11305D059F05F3F71F04795880F97FB991F61F0C1
S11305E09F3F79F087950895121613061406551F38
S11305F0F2CF4695F1DF08C0161617061806991FA4
S1130600F1CF86957105610508940895E894BB2798
S113061066277727CB0197F908950E9420030C944D
S1130620BF020E94860238F00E948D0220F09523BA
S113063011F00C947D020C94830211240C94070392
S11306400E94E40270F3959FC1F3950F50E0551F8B
S1130650629FF001729FBB27F00DB11D639FAA2713
S1130660F00DB11DAA1F649F6627B00DA11D661F62
S1130670829F2227B00DA11D621F739FB00DA11D83
S1130680621F839FA00D611D221F749F3327A00D3D
S1130690611D231F849F600D211D822F762F6A2FD9
S11306A011249F5750409AF0F1F088234AF0EE0F3E
S11306B0FF1FBB1F661F771F881F91505040A9F76B
S11306C09E3F510580F00C947D020C9407035F3F1C
S11306D0E4F3983ED4F3869577956795B795F795A7
S11306E0E7959F5FC1F7FE2B880F911D969587951F
S11306F097F908959F3F31F0915020F487957795AD
S11307006795B795880F911D9695879597F90895E4
S11307109F938F937F936F93FF93EF939B01AC0110
S11307200E940D03EF91FF910E949C032F913F9132
S11307304F915F910C940D03DF93CF931F930F930D
S1130740FF92EF92DF927B018C01689406C0DA2E4F
S1130750EF010E942003FE01E894A59125913591B3
S113076045915591A6F3EF010E944501FE019701C1
S1130770A801DA9469F7DF90EF90FF900F911F9131
S10D0780CF91DF910895F894FFCFA4
S9030000FC
