:020000020000FC
:1000000008EF04B90CE10AB9992705E005BD02E043
:1000100004BD0FEF07BD22274FEFACE3FF244CE3F5
:100020006CE16BB903B10430B9F00230E1F001309A
:1000300009F10C940B00943071F303B1043061F0BA
:10004000023089F00130B1F016B51217212F98F760
:100050004A9589F70C94620060E16BB993950E9410
:1000600056000C941B0068E06BB993950E945600F3
:100070000C941B0064E06BB993950E9456000C949D
:100080001B0060E16BB993950E9456000C946200CE
:1000900068E06BB993950E9456000C94620064E08E
:1000A0006BB993950E9456000C94620035E15BE4B5
:1000B0007FEB7A95F1F75A95E1F73A95D1F780E021
:1000C0008BB9089593FD0C940B0003B1043021F219
:1000D000023049F2013071F216B51F15F12E90F77A
:0800E000AA9581F70C940B00B6
:00000001FF
