:100000000C9443000C9455000C9455000C9455002E
:100010000C9455000C9455000C9455000C9455000C
:100020000C9455000C9455000C9455000C945500FC
:100030000C9455000C9455000C9455000C945500EC
:100040000C9455000C9455000C9455000C945500DC
:100050000C9455000C9455000C9455000C945500CC
:100060000C9455000C94550005A84CCDB2D44EB953
:100070003836A9020C50B9918688083CA6AAAA2A4B
:10008000BE000000803F11241FBECFEFD8E0DEBFCE
:10009000CDBF21E0A0E0B1E001C01D92A330B207C6
:1000A000E1F70E94B4010C948A040C940000CF92F2
:1000B000DF92EF92FF920F931F93CF93DF93C12CA8
:1000C000D12C7601C0E0D0E003E010E020E030E089
:1000D0004AEB52E4C701B6010E943A029B01AC010F
:1000E0000E94C90126E53EE049E450E40E948D03E8
:1000F0000E94FA0320E030E04EEF52E40E948D03AC
:1001000020E030E04EEF52E40E94C9010E94AC02B0
:1001100060930001862F880F880F809302016295FB
:10012000669566956370609301018BB980910101BA
:1001300085B986B1811116C0C8010197F1F72196E2
:10014000BE010D2E000C880B990B0E94DD026B0185
:100150007C0120E030E04AEB52E40E9435021816A0
:100160000CF0B4CFDF91CF911F910F91FF90EF90E2
:10017000DF90CF900895BF92CF92DF92EF92FF92DF
:100180000F931F93CF93DF93C12CD12C7601C0E046
:10019000D0E0BB24BA940EE912E020E030E04AE35C
:1001A00052E4C701B6010E943502880F880B8B21EB
:1001B00080930001982F990F990F909302018295D7
:1001C000869586958370809301019BB9809101018A
:1001D00085B986B18130A9F4C8010197F1F721965C
:1001E000BE010D2E000C880B990B0E94DD026B01E5
:1001F0007C0120E030E04AEB52E40E943502181600
:1002000064F6DF91CF911F910F91FF90EF90DF90F7
:10021000CF90BF900895CF92DF92EF92FF920F930D
:100220001F93CF93DF93109200011092020110925E
:1002300001011BB88091010185B986B1823009F0B6
:1002400084C0C0E0D0E008E012E025C020E030E04B
:100250004AE352E4C701B6010E943A0220E030E0CE
:100260004FE753E40E948D030E94AC0260930001AB
:10027000862F880F880F8093020162956695669598
:100280006370609301018BB98091010185B986B1DA
:10029000823009F05AC0C8010197F1F72196BE01DA
:1002A0000D2E000C880B990B0E94DD026B017C0166
:1002B00020E030E04AE352E40E943502181634F69A
:1002C0002FC0BE010D2E000C880B990B0E94DD0281
:1002D00020E030E04AE352E40E943A0220E030E0BD
:1002E0004FE753E40E948D030E94AC02609300012B
:1002F000862F880F880F8093020162956695669518
:100300006370609301018BB98091010185B986B159
:100310008230D9F4C8010197F1F7219790F615C002
:100320008CEF8093000180EF8093020193E0909323
:1003300001018BB98091010185B986B1823029F420
:10034000CEE2D0E008E012E0E5CFDF91CF911F913F
:100350000F91FF90EF90DF90CF90089583E084B9E4
:100360008CEF87B98AB908950E94AE0186B18111D8
:1003700003C00E945700FACF86B1813019F40E9461
:10038000BB00F4CF86B1823089F70E940B01EECF1B
:100390005058BB27AA270E94E0010C9453030E94E7
:1003A000450338F00E944C0320F039F49F3F19F4C4
:1003B00026F40C9442030EF4E095E7FB0C943C0306
:1003C000E92F0E94640358F3BA1762077307840782
:1003D000950720F079F4A6F50C9486030EF4E095C9
:1003E0000B2EBA2FA02D0B01B90190010C01CA01EF
:1003F000A0011124FF27591B99F0593F50F4503E9A
:1004000068F11A16F040A22F232F342F4427585F8B
:10041000F3CF469537952795A795F0405395C9F7A3
:100420007EF41F16BA0B620B730B840BBAF091505B
:10043000A1F0FF0FBB1F661F771F881FC2F70EC0FA
:10044000BA0F621F731F841F48F4879577956795CD
:10045000B795F7959E3F08F0B0CF9395880F08F0B9
:100460009927EE0F9795879508950E94180308F431
:1004700081E008950E944E020C9453030E944C03A5
:1004800058F00E94450340F029F45F3F29F00C9496
:100490003C0351110C9487030C9442030E946403A3
:1004A00068F39923B1F3552391F3951B550BBB27A3
:1004B000AA2762177307840738F09F5F5F4F220FE8
:1004C000331F441FAA1FA9F335D00E2E3AF0E0E8DF
:1004D00032D091505040E695001CCAF72BD0FE2F29
:1004E00029D0660F771F881FBB1F261737074807BD
:1004F000AB07B0E809F0BB0B802DBF01FF27935875
:100500005F4F3AF09E3F510578F00C943C030C94F9
:1005100087035F3FE4F3983ED4F38695779567951C
:10052000B795F7959F5FC9F7880F911D96958795A9
:1005300097F90895E1E0660F771F881FBB1F6217C8
:1005400073078407BA0720F0621B730B840BBA0B86
:10055000EE1F88F7E09508950E946C0388F09F577E
:1005600098F0B92F9927B751B0F0E1F0660F771FD7
:10057000881F991F1AF0BA95C9F714C0B13091F0CD
:100580000E948603B1E008950C948603672F782FAC
:100590008827B85F39F0B93FCCF386957795679592
:1005A000B395D9F73EF490958095709561957F4FFE
:1005B0008F4F9F4F0895E89409C097FB3EF49095A4
:1005C0008095709561957F4F8F4F9F4F9923A9F02C
:1005D000F92F96E9BB279395F695879577956795BB
:1005E000B795F111F8CFFAF4BB0F11F460FF1BC0FF
:1005F0006F5F7F4F8F4F9F4F16C0882311F096E992
:1006000011C0772321F09EE8872F762F05C066233F
:1006100071F096E8862F70E060E02AF09A95660FF8
:10062000771F881FDAF7880F9695879597F90895B1
:10063000990F0008550FAA0BE0E8FEEF16161706F3
:10064000E807F907C0F012161306E407F50798F05B
:10065000621B730B840B950B39F40A2661F0232B74
:10066000242B252B21F408950A2609F4A140A695F0
:100670008FEF811D811D089597F99F6780E870E0D5
:1006800060E008959FEF80EC089500240A94161608
:10069000170618060906089500240A941216130670
:1006A000140605060895092E0394000C11F48823FE
:1006B00052F0BB0F40F4BF2B11F460FF04C06F5F1A
:1006C0007F4F8F4F9F4F089557FD9058440F551FF0
:1006D00059F05F3F71F04795880F97FB991F61F0C4
:1006E0009F3F79F087950895121613061406551F3B
:1006F000F2CF4695F1DF08C0161617061806991FA7
:10070000F1CF86957105610508940895E894BB279B
:1007100066277727CB0197F908950E94A0030C94D0
:1007200053030E94450338F00E944C0320F09523A8
:1007300011F00C943C030C94420311240C94870395
:100740000E94640370F3959FC1F3950F50E0551F0D
:10075000629FF001729FBB27F00DB11D639FAA2716
:10076000F00DB11DAA1F649F6627B00DA11D661F65
:10077000829F2227B00DA11D621F739FB00DA11D86
:10078000621F839FA00D611D221F749F3327A00D40
:10079000611D231F849F600D211D822F762F6A2FDC
:1007A00011249F5750409AF0F1F088234AF0EE0F41
:1007B000FF1FBB1F661F771F881F91505040A9F76E
:1007C0009E3F510580F00C943C030C9487035F3FDF
:1007D000E4F3983ED4F3869577956795B795F795AA
:1007E000E7959F5FC1F7FE2B880F911D9695879522
:1007F00097F908959F930E9404040F9007FCEE5F01
:100800000C942D040C9442030E946C03D8F3E894DA
:10081000E0E0BB279F57F0F02AED3FE049EC06C02F
:10082000EE0FBB0F661F771F881F28F0B23A6207D2
:100830007307840728F0B25A620B730B840BE3959D
:100840009A9572F7803830F49A95BB0F661F771F20
:10085000881FD2F790480C944304EF93E0FF07C041
:10086000A2EA2AED3FE049EC5FEB0E94E0010E9422
:1008700053030F90039401FC9058E8E6F0E00C94C9
:100880004F049F3F31F0915020F4879577956795FD
:10089000B795880F911D9695879597F908959F9321
:1008A0008F937F936F93FF93EF939B01AC010E9413
:1008B0008D03EF91FF910E9463042F913F914F911F
:1008C0005F910C948D03DF93CF931F930F93FF924F
:1008D000EF92DF927B018C01689406C0DA2EEF0163
:1008E0000E94A003FE01E894A591259135914591C0
:1008F0005591A6F3EF010E94E001FE019701A801C6
:10090000DA9469F7DF90EF90FF900F911F91CF91EC
:08091000DF910895F894FFCF78
:00000001FF
